{
  "fileName": "Add.sol",
  "contractName": "Add",
  "source": "// SPDX-License-Identifier: MIT\n/*\npragma solidity >=0.4.22 <0.8.0;\n\nimport \"@openzeppelin/upgrades/contracts/Initializable.sol\";\ncontract Add is Initializable {\n    string public name;\n    uint256 public u;\n    uint256 public inc;\n    function initialize(string memory _name) initializer public {\n        name = _name;\n        u=0;\n    }\n    function decrementBy(uint256 x) public returns (uint256) {\n        return u -= x;\n    }\n    function incrementBy(uint256 x) public returns (uint256) {\n        return u +=x;\n    }\n    \n}\n*/\n\n\n// SPDX-License-Identifier: MIT\npragma solidity >=0.4.22 <0.8.0;\nimport \"@openzeppelin/contracts-ethereum-package/contracts/math/SafeMath.sol\";\nimport \"@openzeppelin/upgrades/contracts/Initializable.sol\";\ncontract Add is Initializable {\n    using SafeMath for uint;\n    string public name;\n    uint256 public u;\n    uint256 public inc;\n    function initialize(string memory _name) initializer public {\n        name = _name;\n        u=0;\n    }\n    function decrementBy(uint256 x) public returns (uint256) {\n        return u = u.sub(x);\n    }\n    function incrementBy(uint256 x) public returns (uint256) {\n        return u = u.add(x);\n    }\n    \n}\n",
  "sourcePath": "contracts/Add.sol",
  "abi": [
    {
      "inputs": [
        {
          "internalType": "uint256",
          "name": "x",
          "type": "uint256"
        }
      ],
      "name": "decrementBy",
      "outputs": [
        {
          "internalType": "uint256",
          "name": "",
          "type": "uint256"
        }
      ],
      "stateMutability": "nonpayable",
      "type": "function"
    },
    {
      "inputs": [],
      "name": "inc",
      "outputs": [
        {
          "internalType": "uint256",
          "name": "",
          "type": "uint256"
        }
      ],
      "stateMutability": "view",
      "type": "function"
    },
    {
      "inputs": [
        {
          "internalType": "uint256",
          "name": "x",
          "type": "uint256"
        }
      ],
      "name": "incrementBy",
      "outputs": [
        {
          "internalType": "uint256",
          "name": "",
          "type": "uint256"
        }
      ],
      "stateMutability": "nonpayable",
      "type": "function"
    },
    {
      "inputs": [
        {
          "internalType": "string",
          "name": "_name",
          "type": "string"
        }
      ],
      "name": "initialize",
      "outputs": [],
      "stateMutability": "nonpayable",
      "type": "function"
    },
    {
      "inputs": [],
      "name": "name",
      "outputs": [
        {
          "internalType": "string",
          "name": "",
          "type": "string"
        }
      ],
      "stateMutability": "view",
      "type": "function"
    },
    {
      "inputs": [],
      "name": "u",
      "outputs": [
        {
          "internalType": "uint256",
          "name": "",
          "type": "uint256"
        }
      ],
      "stateMutability": "view",
      "type": "function"
    }
  ],
  "bytecode": "0x608060405234801561001057600080fd5b5061071d806100206000396000f3fe608060405234801561001057600080fd5b50600436106100625760003560e01c806303df179c1461006757806306fdde03146100a9578063371303c01461012c5780633721b1d81461014a578063c6a898c51461018c578063f62d1888146101aa575b600080fd5b6100936004803603602081101561007d57600080fd5b8101908080359060200190929190505050610265565b6040518082815260200191505060405180910390f35b6100b1610288565b6040518080602001828103825283818151815260200191508051906020019080838360005b838110156100f15780820151818401526020810190506100d6565b50505050905090810190601f16801561011e5780820380516001836020036101000a031916815260200191505b509250505060405180910390f35b610134610326565b6040518082815260200191505060405180910390f35b6101766004803603602081101561016057600080fd5b810190808035906020019092919050505061032c565b6040518082815260200191505060405180910390f35b61019461034f565b6040518082815260200191505060405180910390f35b610263600480360360208110156101c057600080fd5b81019080803590602001906401000000008111156101dd57600080fd5b8201836020820111156101ef57600080fd5b8035906020019184600183028401116401000000008311171561021157600080fd5b91908080601f016020809104026020016040519081016040528093929190818152602001838380828437600081840152601f19601f820116905080830192505050505050509192919290505050610355565b005b600061027c8260345461047390919063ffffffff16565b60348190559050919050565b60338054600181600116156101000203166002900480601f01602080910402602001604051908101604052809291908181526020018280546001816001161561010002031660029004801561031e5780601f106102f35761010080835404028352916020019161031e565b820191906000526020600020905b81548152906001019060200180831161030157829003601f168201915b505050505081565b60355481565b6000610343826034546104fb90919063ffffffff16565b60348190559050919050565b60345481565b600060019054906101000a900460ff16806103745750610373610545565b5b8061038a575060008054906101000a900460ff16155b6103df576040517f08c379a000000000000000000000000000000000000000000000000000000000815260040180806020018281038252602e8152602001806106ba602e913960400191505060405180910390fd5b60008060019054906101000a900460ff16159050801561042f576001600060016101000a81548160ff02191690831515021790555060016000806101000a81548160ff0219169083151502179055505b816033908051906020019061044592919061061c565b506000603481905550801561046f5760008060016101000a81548160ff0219169083151502179055505b5050565b6000808284019050838110156104f1576040517f08c379a000000000000000000000000000000000000000000000000000000000815260040180806020018281038252601b8152602001807f536166654d6174683a206164646974696f6e206f766572666c6f77000000000081525060200191505060405180910390fd5b8091505092915050565b600061053d83836040518060400160405280601e81526020017f536166654d6174683a207375627472616374696f6e206f766572666c6f77000081525061055c565b905092915050565b6000803090506000813b9050600081149250505090565b6000838311158290610609576040517f08c379a00000000000000000000000000000000000000000000000000000000081526004018080602001828103825283818151815260200191508051906020019080838360005b838110156105ce5780820151818401526020810190506105b3565b50505050905090810190601f1680156105fb5780820380516001836020036101000a031916815260200191505b509250505060405180910390fd5b5060008385039050809150509392505050565b828054600181600116156101000203166002900490600052602060002090601f016020900481019282601f1061065d57805160ff191683800117855561068b565b8280016001018555821561068b579182015b8281111561068a57825182559160200191906001019061066f565b5b509050610698919061069c565b5090565b5b808211156106b557600081600090555060010161069d565b509056fe436f6e747261637420696e7374616e63652068617320616c7265616479206265656e20696e697469616c697a6564a2646970667358221220f0947fb6d739f8188e526b741d57df35634751db7298b9e79d9c1581df3a6d1264736f6c634300060c0033",
  "compiler": {
    "name": "solc",
    "version": "0.6.12+commit.27d51765.Emscripten.clang",
    "optimizer": {
      "enabled": false,
      "runs": 200
    },
    "evmVersion": "petersburg"
  }
}