{
  "fileName": "MyContract.sol",
  "contractName": "MyContract",
  "source": "// SPDX-License-Identifier: MIT\npragma solidity >=0.4.22 <0.8.0;\n\nimport \"@openzeppelin/upgrades/contracts/Initializable.sol\";\n\ncontract MyContract is Initializable {\n    address owner;\n    bool bInitialized;\n\n    function initialize() public /*initializer*/ {\n\n        //require(bInitialized == false, \"You can only initialize once\");\n        owner = msg.sender;\n    }\n}",
  "sourcePath": "contracts/MyContract.sol",
  "abi": [
    {
      "inputs": [],
      "name": "initialize",
      "outputs": [],
      "stateMutability": "nonpayable",
      "type": "function"
    }
  ],
  "bytecode": "0x6080604052348015600f57600080fd5b5060ae8061001e6000396000f3fe6080604052348015600f57600080fd5b506004361060285760003560e01c80638129fc1c14602d575b600080fd5b60336035565b005b33603360006101000a81548173ffffffffffffffffffffffffffffffffffffffff021916908373ffffffffffffffffffffffffffffffffffffffff16021790555056fea26469706673582212201ee92c76c860dfde9e277e6520cbcdeff086f15025fb387dae35aa33dcd3865764736f6c634300060c0033",
  "compiler": {
    "name": "solc",
    "version": "0.6.12+commit.27d51765.Emscripten.clang",
    "optimizer": {
      "enabled": false,
      "runs": 200
    },
    "evmVersion": "petersburg"
  }
}